{
  "contractName": "Bear",
  "abi": [
    {
      "anonymous": false,
      "inputs": [
        {
          "indexed": false,
          "internalType": "bytes32",
          "name": "name",
          "type": "bytes32"
        }
      ],
      "name": "NameChanged",
      "type": "event"
    },
    {
      "constant": false,
      "inputs": [
        {
          "internalType": "bytes32",
          "name": "_name",
          "type": "bytes32"
        }
      ],
      "name": "set",
      "outputs": [],
      "payable": false,
      "stateMutability": "nonpayable",
      "type": "function"
    }
  ],
  "bytecode": "0x6080604052348015600f57600080fd5b5060ce8061001e6000396000f3fe6080604052348015600f57600080fd5b506004361060285760003560e01c8063db80813f14602d575b600080fd5b605660048036036020811015604157600080fd5b81019080803590602001909291905050506058565b005b806000819055507fb0a4d76c825dc814a59c1a90f520a677f3f0843980294ef90afe1d7616a1cf70816040518082815260200191505060405180910390a15056fea265627a7a7231582028ec28abf8fda16aafd31dd4acf002a912e7070567491ef426c739a57202567964736f6c63430005100032",
  "source": "pragma solidity >=0.4.21 <0.7.0;\n\n// Stores the name of the current bear\ncontract Bear {\n    bytes32 name;\n\n    event NameChanged(bytes32 name);\n\n    function set(bytes32 _name) public {\n        name = _name;\n        emit NameChanged(_name);\n    }\n}\n",
  "sourcePath": "/home/kyle/Playground/solidity/decent-challenge/contracts/Bear.sol",
  "compiler": {
    "name": "solc",
    "version": "0.5.16+commit.9c3226ce.Emscripten.clang"
  },
  "schemaVersion": "3.4.1",
  "updatedAt": "2021-08-07T15:02:47.385Z",
  "networkType": "ethereum",
  "devdoc": {
    "methods": {}
  },
  "userdoc": {
    "methods": {}
  }
}